:100000000C942A000C9447000C9447000C94470071
:100010000C9447000C9447000C9447000C94470044
:100020000C9447000C9449000C9447000C94470032
:100030000C9447000C9447000C9447000C94470024
:100040000C9447000C9447000C9447000C94470014
:100050000C94470011241FBECFE5D8E0DEBFCDBF12
:1000600010E0A0E6B0E0E4EBF2E002C005900D92F3
:10007000A436B107D9F710E0A4E6B0E001C01D92A4
:10008000A836B107E1F70E94B3000C9458010C9414
:1000900000001F920F920FB60F9211248F939F931F
:1000A000809166009091670001969093670080931D
:1000B00066008A3F910569F4809164009091650023
:1000C00001969093650080936400109267001092EF
:1000D00066008091640090916500CC9769F48091EE
:1000E00060009091610001969093610080936000A0
:1000F0001092650010926400809160009091610000
:10010000CC9769F48091620090916300019690937E
:1001100063008093620010926100109260008091F1
:10012000620090916300489781F4109263001092EE
:1001300062001092650010926400109261001092AB
:100140006000109267001092660083E89FEF9DBDEB
:100150008CBD88B7846088BF9F918F910F900FBE30
:100160000F901F9018958FEF84BB81BB8ABB8FB710
:1001700080688FBF89B7846089BF1FBC84E08EBD53
:1001800083E89FEF9DBD8CBD8091640090916500D8
:100190000A972CF4809164009091650018C08091BA
:1001A000640090916500E0916400F09165006AE060
:1001B00070E00E9431019B0144E0220F331F4A95F9
:1001C000E1F7CF016AE070E00E943101822B85BB2C
:1001D00080916000909161000A972CF480916000FA
:1001E0009091610018C08091600090916100E09151
:1001F0006000F09161006AE070E00E9431019B01B3
:1002000094E0220F331F9A95E1F7CF016AE070E086
:100210000E943101822B82BB809162009091630029
:100220000A972CF4809162009091630018C080912D
:10023000620090916300E0916200F09163006AE0D7
:1002400070E00E9431019B0184E0220F331F8A95E8
:10025000E1F7CF016AE070E00E943101822B8BBB95
:1002600093CF97FB092E07260AD077FD04D00CD038
:1002700006D000201AF4709561957F4F0895F6F727
:10028000909581959F4F0895AA1BBB1B51E107C014
:10029000AA1FBB1FA617B70710F0A61BB70B881F16
:1002A000991F5A95A9F780959095BC01CD010895A5
:0402B000F894FFCFF0
:0402B4001B0001002A
:00000001FF
